:020000040000FA
:100000000A128A11D12FFF1B0D2883137F18831723
:100010000008840A0319FF0A080000308A00040857
:10002000840A820700344534523452344F345234F7
:100030003A342034643465346234653420347334A3
:1000400065347234203431342F3432342F34333425
:1000500000344534523452344F3452343A3420341C
:1000600064346534623465342034733465347234F6
:10007000203431342F34323400343034303430349E
:0E00800030343134003473346134643400346D
:1007A00064008001840A0406031900340406D12B76
:1007B0003034303430343034313444346934723489
:1007C00031340034003400340034003400347E0806
:1007D0008A007F0882000A128A11E7230A128A110E
:1007E0008000840A04087D0603190034FF0A0319F7
:1007F000FE0AEB2BF401132C831203130C1E012CA5
:10080000022CFC2B74087007840071080318710A0D
:10081000FF000A128A1103200A128A11990001307E
:10082000F3007308F40772087402031C182C192CC7
:10083000FC2B0800831203132608F7007708F80042
:100840002708F7007708F9002808F7007708FA006A
:100850002908F7007708FB002A08F7007708FC0052
:100860002B30F7007708F00078300A128A11442400
:100870000A128A117008710403193F2C402C422C73
:100880000130432C00300800F6004E2C0130F200FD
:100890007208F6070130F2007208F0077008840051
:1008A0000A128A110D200A128A11F20076088400B9
:1008B0000008F30072087302F4007408F50075086C
:1008C000031D632C642C6B2C760884000008031D28
:1008D0006A2C6B2C462C7508F000F101F01BF1031B
:1008E000080043346F346E34743472346F346C34B3
:1008F000613420346C346F34733420346134703498
:1009000061347234613474346F3473342034643439
:100910006534203475346E3461342034633461348A
:1009200073346134203469346E34743465346C3417
:100930006934673465346E34743465342E3400346D
:10094000003400340034831203131A08DF003E0819
:10095000D23E84005F08831380000C1EB02CB12CA3
:10096000AD2C3E08D23E84008313000899003E0857
:10097000D23E840065300006031DBF2CC02CDF2C46
:10098000E001D02C6008D23E84000008DF0060083F
:10099000203E84005F0880000130DF005F08E00730
:1009A0003E086002031CD52CD62CC22C0A128A11D8
:1009B000ED250A128A1183120313BE01E32C0130C4
:1009C000DF005F08BE07080083160317880189014E
:1009D00004308316031381003F308600FF3085000A
:1009E000071087100711871107128712981618151C
:1009F00083120313981718168316031787111930DB
:100A00008316031399009A0104308100831603179B
:100A100089018914831603139F171F129F128312D3
:100A200003131F141F159F111F129F160710871005
:100A30000711871107128712831203138C1E212DB1
:100A4000222D1C2D0A128A11A3240A128A111C2D90
:100A50000A128A11002883120313D301FC1F312DBF
:100A6000322D392DFB09FC09FB0A0319FC0AD301BD
:100A7000D30AFA1F3C2D3D2D422DF909FA09F90A36
:100A80000319FA0A79087A040319472D482D772D9E
:100A9000D201D20A562D01300310F90DFA0DFF3E96
:100AA000031D4C2D0130FD007D08D207FA1F592D82
:100AB0005A2D4B2D7A087C02031D602D79087B028C
:100AC000031C632D642D6A2D7908FB027A08031C30
:100AD000FC03FC0201300310FA0CF90CFF3E031D6D
:100AE0006B2D0130D202031D762D772D5A2D530820
:100AF00003197B2D7C2D812DFB09FC09FB0A0319B1
:100B0000FC0A7C08FA007B08F9000800F601F11FD6
:100B10008A2D8B2D922DF009F109F00A0319F10AA3
:100B2000F601F60AF31F952D962D9F2DF209F30974
:100B3000F20A0319F30A0130F4007408F606F7010B
:100B4000F801700871040319A62DA72DDE2DF501FB
:100B5000F50AB52D01300310F00DF10DFF3E031D18
:100B6000AB2D0130F4007408F507F11FB82DB92D35
:100B7000AA2D01300310F70DF80DFF3E031DBA2D0D
:100B800071087302031DC62D70087202031CC92D63
:100B9000CA2DD12D7008F2027108031CF303F30271
:100BA000771401300310F10CF00CFF3E031DD22D21
:100BB0000130F502031DDD2DDE2DB92D7608031958
:100BC000E22DE32DE82DF709F809F70A0319F80AD1
:100BD0007808F1007708F00008005B3083120313F7
:100BE0002006031DF42DF52D482E43302106031D4C
:100BF000FA2DFB2D482E52302206031D002E012E09
:100C0000482E2C302306031D062E072E482E2C308E
:100C10002506031D0C2E0D2E482E5D302B06031DC0
:100C2000122E132E482E0A128A111A240A128A1121
:100C3000003A03191C2E1D2ED02F313083120313BE
:100C40002406031D242E252E322E4830F0000030BD
:100C5000F1000A30D4005408F2000A128A11FA2373
:100C60000A128A113230831203132406031D392E0F
:100C70003A2ED02FA030F0000030F1003230D400F6
:100C80005408F2000A128A11FA230A128A11D02F8C
:100C90005B302006031D4D2E4E2E002F50302106B6
:100CA000031D532E542E002F41302206031D592EB2
:100CB0005A2E002F2C302306031D5F2E602E002F8E
:100CC0002C302506031D652E662E002F2C302B069A
:100CD000031D6B2E6C2E002F2C302E06031D712E43
:100CE000722E002F5D303106031D772E782E002FD7
:100CF0000A128A111A240A128A11003A0319812E43
:100D0000822ED02F3130831203132406031D892E27
:100D10008A2EB32E31302C06031D8F2E902E982E46
:100D2000071C932E942E962E0710B32E0714B32E65
:100D300032302C06031D9D2E9E2EA62E871CA12E22
:100D4000A22EA42E8710B32E8714B32E1730F000D6
:100D50008030F1001930D4005408F2000A128A11D0
:100D6000FA230A128A113230831203132406031D58
:100D7000BA2EBB2EC22E871DBE2EBF2EC12E8711AE
:100D8000C22E871533302406031DC72EC82EF02E21
:100D900031302C06031DCD2ECE2ED12E07128712F8
:100DA000F02E32302C06031DD62ED72EDA2E071643
:100DB0008712F02E33302C06031DDF2EE02EE32E9B
:100DC00007128716F02E0130F0008030F100193044
:100DD000D4005408F2000A128A11FA230A128A1166
:100DE0003430831203132406031DF72EF82ED02F60
:100DF000071DFB2EFC2EFE2E0711D02F0715D02F1E
:100E00005B302006031D052F062FC32F433021061C
:100E1000031D0B2F0C2FC32F4F302206031D112F44
:100E2000122FC32F2C302306031D172F182FC32F6B
:100E30002C302506031D1D2F1E2FC32F2C302B06F3
:100E4000031D232F242FC32F2C302E06031D292FE3
:100E50002A2FC32F5D303106031D2F2F302FC32FB4
:100E6000DE010A128A111A240A128A11003A0319A1
:100E70003A2F3B2FD02F3130831203132406031D4A
:100E8000422F432FD02F9F144D2F831603131E087C
:100E900083120313D4005408DE009F18502F512FE3
:100EA000452FC73083120313D400562FD40B552F70
:100EB000592F6430F0000030F100831203135E08F4
:100EC000D400D5015408F2005508F3000A128A1123
:100ED00086250A128A117008303E83120313D60049
:100EE0005608D8000A30F9000030FA000A30F00045
:100EF0000030F1005E08D400D5015408F200550816
:100F0000F3000A128A1186250A128A117108FC0060
:100F10007008FB000A128A112B250A128A1179081F
:100F2000303E83120313D6005608D9002C30D4006B
:100F30005408DA000A30F9000030FA005E08D400E4
:100F4000D5015408FB005508FC000A128A112B2514
:100F50000A128A117908303E83120313D60056080C
:100F6000DB004330D4005408DC005830F00000307F
:100F7000F1000630D4005408F2000A128A11FA2354
:100F80000A128A11D02F3130F0008030F100033086
:100F9000D4005408F2000A128A11FA230A128A11A4
:100FA00008008313D230FD000430FE007130FF00D2
:100FB000A03084000A128A11EB230A128A115230DF
:100FC000FD000330FE00D830FF00433084000A12D9
:100FD0008A11EB230A128A11D2308400E6300A12F9
:100FE0008A11D0230A128A112030840043300A1259
:100FF0008A11D0230A128A1183010A128A11E42C61
:04400E00D4E0FFFFFC
:00000001FF
